:100000000C945D000C9485000C9485000C94850084
:100010000C9485000C9485000C9485000C9485004C
:100020000C9485000C9485000C9485000C9485003C
:100030000C9485000C9485000C9485000C9485002C
:100040000C94ED0B0C9485000C945D0C0C94370C07
:100050000C9485000C9485000C9485000C9485000C
:100060000C9485000C9485000000000024002700FB
:100070002A0000000000250028002B0004040404CE
:100080000404040402020202020203030303030342
:10009000010204081020408001020408102001021F
:1000A00004081020000000080002010000030407FB
:1000B00000000000000000008F0C11241FBECFEFD5
:1000C000D8E0DEBFCDBF12E0A0E0B1E0E4E9F1E2AC
:1000D00002C005900D92AE3DB107D9F726E0AEED16
:1000E000B2E001C01D92A937B207E1F710E0CDE5FB
:1000F000D0E004C02197FE010E94880ECC35D107C4
:10010000C9F70E945F0D0C94C8100C940000CF92A8
:10011000DF92EF92FF92CF93DF93EC016A017B01B4
:10012000E889F98982E08083C11481EED806E10470
:10013000F104A1F060E079E08DE390E0A701960181
:100140000E94470E215031094109510956954795A2
:1001500037952795211580E1380798F0E889F989C6
:10016000108260E874E88EE190E0A70196010E9499
:10017000470E215031094109510956954795379548
:100180002795EC85FD853083EE85FF852083188ECD
:10019000EC89FD8986E08083EA89FB898081806122
:1001A0008083EA89FB89808188608083EA89FB8972
:1001B000808180688083EA89FB8980818F7D80834C
:1001C000DF91CF91FF90EF90DF90CF900895E7EA15
:1001D000F0E02491E3E9F0E09491EFE7F0E0E491BE
:1001E000EE23C9F0222339F0233001F1A8F42130A5
:1001F00019F1223029F1F0E0EE0FFF1FEE58FF4F0A
:10020000A591B4912FB7F894EC91811126C09095E7
:100210009E239C932FBF08952730A9F02830C9F062
:10022000243049F7209180002F7D03C02091800069
:100230002F7720938000DFCF24B52F7724BDDBCF2D
:1002400024B52F7DFBCF2091B0002F772093B000F5
:10025000D2CF2091B0002F7DF9CF9E2BDACF90E046
:10026000FC01E057FF4F249184589F4FFC0184917B
:10027000882399F090E0880F991FFC01E859FF4FFF
:10028000A591B491FC01EE58FF4F859194918FB7E1
:10029000F894EC91E22BEC938FBF08953FB7F8945C
:1002A0008091E3029091E402A091E502B091E60210
:1002B00026B5A89B05C02F3F19F00196A11DB11DC1
:1002C0003FBFBA2FA92F982F8827BC01CD01620FFD
:1002D000711D811D911D42E0660F771F881F991FB8
:1002E0004A95D1F708958F929F92AF92BF92CF9285
:1002F000DF92EF92FF924B015C010E944E016B0175
:100300007C010E944E016C197D098E099F09683E8F
:10031000734081059105A8F321E0821A9108A10894
:10032000B10888EEC80E83E0D81EE11CF11C8114D0
:100330009104A104B10429F7FF90EF90DF90CF90D2
:10034000BF90AF909F908F9008952FB7F8946091D1
:10035000DF027091E0028091E1029091E2022FBFF2
:100360000895AF92BF92CF92DF92EF92FF920F93D8
:100370001F93CF93DF936C017B018B01040F151F3B
:10038000EB015E01AE18BF08C017D10759F06991A3
:10039000D601ED91FC910190F081E02DC601099507
:1003A000892B79F7C501DF91CF911F910F91FF90B4
:1003B000EF90DF90CF90BF90AF900895FC01538DE8
:1003C000448D252F30E0842F90E0821B930B54172F
:1003D00010F0CF96089501970895FC01918D828DBC
:1003E000981761F0A28DAE0FBF2FB11D5D968C9155
:1003F000928D9F5F9F73928F90E008958FEF9FEF94
:100400000895FC01918D828D981731F0828DE80F4F
:10041000F11D858D90E008958FEF9FEF0895FC0109
:10042000918D228D892F90E0805C9F4F821B9109D6
:100430008F739927089587EE92E00E940F0221E0C2
:10044000892B09F420E0822F089580E090E0892B29
:1004500029F00E941B0281110C9400000895FC01F8
:10046000A48DA80FB92FB11DA35ABF4F2C91848D15
:1004700090E001968F739927848FA689B7892C9372
:10048000A089B1898C91837080648C93938D848DC5
:10049000981306C00288F389E02D80818F7D8083C8
:1004A0000895EF92FF920F931F93CF93DF93EC0188
:1004B00081E0888F9B8D8C8D98131AC0E889F9890B
:1004C000808185FF15C09FB7F894EE89FF8960830E
:1004D000E889F98980818370806480839FBF81E08F
:1004E00090E0DF91CF911F910F91FF90EF900895D1
:1004F000F62E0B8D10E00F5F1F4F0F731127E02EAC
:100500008C8D8E110CC00FB607FCFACFE889F989E3
:10051000808185FFF5CFCE010E942F02F1CFEB8DB8
:10052000EC0FFD2FF11DE35AFF4FF0829FB7F894B7
:100530000B8FEA89FB8980818062CFCFCF93DF93D5
:10054000EC01888D8823B9F0AA89BB89E889F989EB
:100550008C9185FD03C0808186FD0DC00FB607FC20
:10056000F7CF8C9185FFF2CF808185FFEDCFCE0153
:100570000E942F02E9CFDF91CF9108958E549D4FB5
:10058000FC018081089586E891E0089587EA91E072
:100590000895FC018485958508958F929F92AF926E
:1005A000BF92CF92DF92EF92FF920F931F93CF9360
:1005B000DF9300D000D01F92CDB7DEB7643671054F
:1005C0004CF0FC01EE54FD4F2081A12CB12C2223D4
:1005D00009F477C0DA015B018C01BC016D5C7E4FD0
:1005E000ED91FC910190F081E02DCA0109957C010B
:1005F000680124EDC21A2EEFD20A2FEFD6012C93F8
:10060000F801E35DFE4F2EEF208331968083319613
:1006100090833196890F809580833196A0821696BB
:10062000BC9245E050E030E020E0C7010796481753
:10063000590730F46191260F311D4F5F5F4FF7CF9F
:10064000B8E0EB0EF11C800F911FFC01E45DFE4F42
:1006500020952083E9E1EE16E1E0FE06B8F45701AB
:100660004601C4018C199D098E159F0554F5D801CA
:1006700012968D919C91F40161914F01DC01ED91F5
:10068000FC910190F081E02D0995EBCF8EE391E094
:100690009A83898383E08B8387EB91E09D838C83AE
:1006A000D801ED91FC910190F081E02DAE014F5FFA
:1006B0005F4F67E070E0C8010995AA24AA94BB24A3
:1006C000BA94C5010F900F900F900F900F90DF918B
:1006D000CF911F910F91FF90EF90DF90CF90BF903F
:1006E000AF909F908F9008950F931F93CF93DF93B8
:1006F000CDB7DEB72A970FB6F894DEBF0FBECDBFD9
:100700008C0182E391E09A8389831B821C821D8283
:100710001E821F82188619861A86D801ED91FC91D7
:100720000190F081E02DAE014F5F5F4F6AE070E015
:10073000C80109950E94A501F80160877187828729
:1007400093872A960FB6F894DEBF0FBECDBFDF9118
:10075000CF911F910F9108958F929F92AF92BF9268
:10076000CF92DF92EF92FF921F93CF93DF93EC0132
:10077000FB0180819181A281B381AB014D5F5F4F0D
:10078000FA0124E030E06C017D0114E0C10ED11CBF
:10079000E11CF11C4901B12CA12C8C149D04AE0468
:1007A000BF0428F4118111932F5F3F4FF3CF680FDF
:1007B000791FFB0113825B834A830496DF91CF91FB
:1007C0001F91FF90EF90DF90CF90BF90AF909F90E0
:1007D0008F9008950F931F93CF93DF938C01EC01BB
:1007E0002696CE010E94AC03D8011A96ED91FC9199
:1007F000CE01DF91CF911F910F91099480EF91E08D
:10080000089586E091E0089581E192E0089582E301
:1008100092E008958F929F92AF92BF92CF92DF9213
:10082000EF92FF921F93CF93DF93EC01FB01808146
:100830008A8381819281A381B481AB014C5F5F4F38
:10084000FA0125E030E06C017D0115E0C10ED11CFC
:10085000E11CF11C4901B12CA12C8C149D04AE04A7
:10086000BF0428F4118111932F5F3F4FF3CF680F1E
:10087000791FFB0114825C834B830596DF91CF9136
:100880001F91FF90EF90DF90CF90BF90AF909F901F
:100890008F90089585E492E0089586E692E00895A9
:1008A0006F927F928F929F92AF92BF92CF92DF9280
:1008B000EF92FF920F931F93CF93DF93DC01FB0125
:1008C000808190E013969C938E9312972181922BB6
:1008D00013969C938E931297028113812481358104
:1008E000AB014B5F5F4FEA0186E090E06801790160
:1008F00066E0C60ED11CE11CF11C4C01B12CA12CF0
:100900008C149D04AE04BF0420F4698169930196A0
:10091000F4CFEF01C00FD11F1D8215965C934E934B
:100920001497EF01C00FD11F4E815F8168857985D3
:10093000065F1F4F3F01600E711E6801012E000C03
:10094000EE08FF08C40ED51EE61EF71E43018E1AE0
:100950009F0AB12CA12C8C149D04AE04BF0440F45A
:10096000E30129913E01CE010297EC012883EECFED
:10097000400F511F9F01240F351FC9010197EC0142
:100980001882C80101978E0F9F1F17969C938E9314
:100990001697E90188809980AA80BB804C5F5F4FE1
:1009A0003F01640E751E8A01052E000C220B330BCD
:1009B000080D191D2A1D3B1D6301CE1ADF0AF12CFB
:1009C000E12CC016D106E206F30640F4E30169917A
:1009D0003E01CE010297EC016883EECFCA01880D7B
:1009E000991D8F01080F191F980121503109E90144
:1009F000188241505109E40FF51F1996FC93EE93AC
:100A00001897F8012181428150E070E060E0BA015E
:100A100055274427522B2081422B2381722B1A9673
:100A20004D935D936D937C931D970496DF91CF91C9
:100A30001F910F91FF90EF90DF90CF90BF90AF90FC
:100A40009F908F907F906F9008958FE792E0089528
:100A500080EA92E00895FC01DB014C9150E070E0E7
:100A600060E0428353836483758311968C91119760
:100A7000582B428353836483758312968C9112970B
:100A8000682B428353836483758313968C911397E9
:100A9000782B428353836483758314964C91149707
:100AA00050E070E060E04683578360877187159659
:100AB0008C911597582B46835783608771871696BC
:100AC0008C911697682B468357836087718717969A
:100AD0008C91782B468357836087718788E090E0FC
:100AE0000895DC01FB0112968C9112978083139676
:100AF0008C911397818314968C9114978283159609
:100B00008C911597838316968C91169784831796EC
:100B10008C911797858318968C91189786831996D0
:100B20008C91878388E090E00895CF93DF93EC0168
:100B30006A817B816115710561F0FB0101900020E4
:100B4000E9F73197AF01461B570B87EE92E00E9401
:100B5000B10142E050E06EEA72E087EE92E00E945E
:100B6000B1010A80DB81C02D61EB72E0CE010E94F1
:100B7000630F892BE1F481E00E94E70084EB92E0AF
:100B800090939F0380939E03809198039091990383
:100B90006091960370919703DC01ED91FC910190B7
:100BA000F081E02D4CE953E0DF91CF9109946DEB9A
:100BB00072E0CE010E94630F892B31F480E00E9425
:100BC000E70081EC92E0DCCF6BEC72E0CE010E949A
:100BD000630F892BC9F4CAE0D0E081E00E94E700EE
:100BE00068EE73E080E090E00E94730180E00E9474
:100BF000E70068EE73E080E090E00E9473012197C7
:100C000061F7DF91CF910895C5E0D0E081E00E94C7
:100C1000E70068EE73E080E090E00E94730180E0FE
:100C20000E94E70068EE73E080E090E00E947301AC
:100C3000219761F7E6CFCF93DF93362F272FDC0183
:100C40001296ED91FC911397EF0109900020E9F7BE
:100C50002197CE1BDF0BAE0170E060E0E32FF22F97
:100C6000419351936193719312966D917C91CF0151
:100C70000E945A0FCE010496DF91CF910895BF9242
:100C8000CF92DF92EF92FF920F931F93CF93DF9358
:100C90008C01EB01DC0112968C91888319821A82F7
:100CA0001B82DB01149680E09D012C1B3D0BF8019B
:100CB00092818917D8F4F4E08F9F90011124F801F4
:100CC00047815085FA01E20FF31F50813181228163
:100CD00093815C9311963C93119712962C931297E3
:100CE00013969C9313978F5F1496DECF81858C9318
:100CF000DE01A20FB31F11961C92119712961C923F
:100D0000129713961C92F9013496EC0FFD1F90E098
:100D10009F012C1B3D0BD80119968C9119979817A0
:100D2000D8F4B4E09B9F90011124D8011E964D91F8
:100D30005C91DA01A20FB31F4C9111963C9111976F
:100D400012962C91129713968C91408331832283B3
:100D500083839F5F3496DCCF50968C918083FE0115
:100D6000E20FF31F11821282C90104961382B12C83
:100D7000F8012089B216A0F52B2D30E0220F331F89
:100D80000388F489E02DE20FF31FA081B181FD01FA
:100D900001900020E9F731976F01CA1ADB0AFE01C2
:100DA000E80FF91FA60170E060E040835183628381
:100DB00073837C01F4E0EF0EF11CD80153968D9102
:100DC0009C91280F391FF90160817181CE018E0D30
:100DD0009F1D0E945A0FC6018E0D9F1DB394C8CF50
:100DE000DF91CF911F910F91FF90EF90DF90CF9007
:100DF000BF900895CF93DF93DC01FB0112968C9195
:100E00001297808313968D919C911497EC01099011
:100E10000020E9F72197C81BD90BAE0170E060E014
:100E2000418352836383748313966D917C91CF01C8
:100E300005960E945A0FCE010596DF91CF91089535
:100E4000CF92DF92EF92FF920F931F93CF93DF9396
:100E50007C01EB01FC018281888383818983A481E9
:100E6000B581FD0101900020E9F731976F01CA1AA1
:100E7000DB0AC601B0E0A0E08A839B83AC83BD831C
:100E8000F70164817581A601CE0106960E945A0F72
:100E9000F701A681B781FD0101900020E9F73197A4
:100EA0008F010A1B1B0BFE01EC0DFD1DC801B0E0FC
:100EB000A0E086839783A087B187FAE0CF0ED11C8C
:100EC000F70166817781A801CE018C0D9D1D0E94DE
:100ED0005A0F0C0D1D1DF701A085B185FD01019074
:100EE0000020E9F731976F01CA1ADB0AFE01E00F13
:100EF000F11FC601B0E0A0E080839183A283B38399
:100F00000C5F1F4FF70160857185A601CE01800F30
:100F1000911F0E945A0F0C0D1D1DF701428523855C
:100F200094858585C00FD11F488329839A838B833D
:100F3000C8010496DF91CF911F910F91FF90EF9020
:100F4000DF90CF9008954F925F926F927F928F9231
:100F50009F92AF92BF92CF92DF92EF92FF920F9348
:100F60001F93CF93DF93EC017B01DB011C918A81FE
:100F7000811750F4B4E01B9FB00111248F81988534
:100F80000E949D0E98878F831A8397012C5F3F4F95
:100F900060E0AE014D5F5F4F6901CE18DF08F901D7
:100FA00010818A81681710F57181828190E0B0E02C
:100FB000A0E0DC0199278827972B812B7381B72B21
:100FC0008B839C83AD83BE83F4E06F9FC0011124AB
:100FD000AF81B885A80FB91F84E0FA0101900D9286
:100FE0008A95E1F76F5F2C5F3F4FD6CF89858117D8
:100FF00050F434E0139FB00111248E859F850E9428
:101000009D0E9F878E871987C60104968E0D9F1DA2
:10101000C12C9E01265F3F4F8C010E191F09DC0178
:10102000DC904985C41630F51196EC911197129613
:101030004C91129750E070E060E0BA0155274427C8
:101040005E2B4D291396EC917E2B4A875B876C872C
:101050007D87B4E0CB9EA0011124AE85BF85A40F8F
:10106000B51F44E0F90101900D924A95E1F7C39450
:101070000496D2CF88898D1550F46D2D70E0660FDF
:10108000771F8B899C890E949D0E9C8B8B8BC8013E
:101090000496D88A20E06E01E1E1CE0ED11C388999
:1010A000231708F041C0D701A80FB91F4D915D91DA
:1010B0006D917C910496D701A80FB91F4C01092EA0
:1010C000000CAA08BB08840E951EA61EB71E2D0193
:1010D0004E185F08712C612C481459046A047B0473
:1010E00038F43D918D0102501109F8013083EFCFA2
:1010F000480F591FD701A40FB51F11971C920197D4
:101100008E0D9F1D9A8B898BCA01422F50E0440F90
:10111000551FAB89BC89A40FB51FF60140815181D1
:101120004D935C932F5FBBCFDF91CF911F910F91B8
:10113000FF90EF90DF90CF90BF90AF909F908F90F7
:101140007F906F905F904F9008952F923F924F92B3
:101150005F926F927F928F929F92AF92BF92CF9247
:10116000DF92EF92FF920F931F93CF93DF93CDB750
:10117000DEB7A6970FB6F894DEBF0FBECDBF8C01C9
:101180000E94A5014B015C01980129543D4F3E8B03
:101190002D8BF90180819181A281B3817501640158
:1011A000C81AD90AEA0AFB0AD701C601893F9A423E
:1011B000A105B10510F035971082180138E5231A02
:1011C0003DEF330AD1018D919C91892B79F0F80183
:1011D000E554FD4F80819181A281B38188159905E5
:1011E000AA05BB0518F4F10111821082980120555F
:1011F0003D4F3A8B298BA80144555D4F5C8B4B8B3F
:10120000C8014496988F8F8BD801AE54BD4FBC8FC8
:10121000AB8FF801E054FD4FFE8FED8F215F3F4F04
:1012200038A32F8F42505109588B4F8786569D4FB8
:101230009A8F898F1996BAA3A9A3A50194012C5E50
:101240003F4F4F4F5F4F2BA33CA34DA35EA3D8014D
:1012500012968D919C91DC01ED91FC910284F385B5
:10126000E02D09959C0197FD8FC2E989FA8980815B
:101270009181820F931F91838083D1014D915C9165
:10128000119747305105E9F4E98DFA8D80819181FC
:10129000AC014F5F5F4F51834083800F911FDC0192
:1012A00054962C93EF85F8898081918101979183E1
:1012B0008083892B61F688E090E0D1018D939C9327
:1012C000C6CF4115510509F03FC02F3F310589F4C4
:1012D00081E090E0F10191838083CBA0DCA0EDA0C0
:1012E000FEA0A9A1BAA1CD92DD92ED92FC92139736
:1012F000AECF0E94A501681979098A099B09663059
:1013000071058105910508F4A2CFF801EE54FD4F57
:1013100010828EEF9FEFA6960FB6F894DEBF0FBE39
:10132000CDBFDF91CF911F910F91FF90EF90DF9094
:10133000CF90BF90AF909F908F907F906F905F9075
:101340004F903F902F9008954130510581F482E0F5
:1013500090E02E3F310581F11D921C92EB8DFC8DAA
:101360008081811174CFC8010E94740370CF423014
:10137000510591F4AF85B8892D933C93E98DFA8D91
:101380001182108283E090E0D1018D939C93E989D2
:10139000FA89318320835BCF4330510589F4322FA2
:1013A0002227AF85B8898D919C911197280F391FFD
:1013B0002D933C9384E090E0F1019183808347CFAB
:1013C0004430510571F460E071E00E94330E8F3FAC
:1013D000910519F485E090E070CFF101118210823F
:1013E00036CF4530510571F4AB89BC892D933C93C0
:1013F00086E090E0F10191838083A989BA892D93D9
:101400003C9325CF4630510599F4322F2227EB89A2
:10141000FC8980819181280F391F3183208387E0E7
:1014200090E08D939C93EF85F8898081918141CFE5
:101430004830510509F00BCF1D921C9260E071E01D
:101440000E94330E8F3F910509F001CFAB89BC8913
:10145000ED91FC91309709F0C8C0C8010E94740357
:1014600086E291E09A8389831C821B8280EB92E062
:101470009E838D8398878F839A8789871B861C8696
:101480001D861E866801BCEBCB1ABDEFDB0A780116
:10149000EAE8EE1AEDEFFE0A28E1422E55245394B5
:1014A000612C712CD601ED91FC913097A9F18481CA
:1014B00095819C838B83808191819E838D838281A2
:1014C0009381DC01ED91FC910480F581E02D09957B
:1014D00098878F83D601ED91FC9182819381DC0105
:1014E000ED91FC910680F781E02D09959A87898717
:1014F0004B865C866D867E86D601ED91FC9160857B
:101500007185D801ED91FC910190F081E02DAE0143
:101510004F5F5F4FC8010995B2E0CB0ED11CEC14B0
:10152000FD0409F0BFCF98E1492E55245394612C56
:10153000712CF701A081B1811097E1F112968D9184
:101540009C9113979C838B8314968D919C911597F6
:101550009E838D83ED91FC9111970480F581E02DA0
:10156000CD01099598878F83D7018D919C91DC01DE
:10157000ED91FC910680F781E02D09959A87898786
:101580004B865C866D867E86D801ED91FC91C0808D
:10159000D180F70180819181DC01ED91FC91028085
:1015A000F381E02D0995AE014F5F5F4FBC01C8018B
:1015B000F6010995F2E0EF0EF11C2E143F0409F03C
:1015C000B8CFF801EE54FD4F81E0808331968082E0
:1015D0009182A282B382AD89BE898D929D92AD9295
:1015E000BC9213978FEF9FEF96CEEA30F10509F08A
:1015F000A1C082E391E09A8389831B821C821D82B1
:101600001E821F82188619861A860E94A501F8017B
:10161000C084D184E284F3849B01AC012C193D0980
:101620004E095F0969017A016F89788DCE010196B3
:101630000E942B05C701B60128EE33E040E050E0E0
:101640000E94470E69017A019B01AC018B819C814C
:10165000AD81BE818C0D9D1DAE1DBF1D8B839C83F6
:10166000AD83BE8360E472E48FE090E00E94230EBD
:10167000CF80D884E984FA84DC01CB018C0D9D1DD8
:10168000AE1DBF1D8F839887A987BA870E94A501C9
:10169000CF80D884E984FA8436E3D31A35E6E30AA6
:1016A00034ECF30A28EE33E040E050E00E94470EAD
:1016B00029013A019B01AC0160E472E48FE090E003
:1016C0000E94230EA7019601261B370B480B590BCE
:1016D000CA01B9012B813C814D815E8121503109C4
:1016E0004109510969017A01C418D508E608F708CB
:1016F0002601370120E03AEC4AE95BE30E94470EFD
:10170000420E531E641E751ED8011C964D925D92AA
:101710006D927C921F97F801608B718B828B938BFB
:101720000E94A501AD89BE896D937D938D939C9395
:1017300013978DCDE630F10559F46F89788D8D8D35
:101740009E8D0E94A30781E0EF8DF8A180837FCD5D
:10175000EB30F10521F4AB8DBC8D1C9278CDE952B4
:10176000FF4FEE0FFF1FE00FF11F80819181009767
:1017700009F46DCDDC01ED91FC910190F081E02D3B
:101780006F89788D099563CDF801EE54FD4F808106
:10179000882301F17801BDE4EB1ABDEFFB0AF701E4
:1017A00080819181A281B381A5019401281B390B0D
:1017B0004A0B5B0BDA01C901853C9940A105B105D3
:1017C00048F0C8010E947403D7018D929D92AD929A
:1017D000BC92139790E080E09ECD1F920F920FB6BF
:1017E0000F9211242F933F938F939F93AF93BF93A7
:1017F0008091DF029091E002A091E102B091E202BB
:101800003091DE0223E0230F2D3758F50196A11DFC
:10181000B11D2093DE028093DF029093E002A0933B
:10182000E102B093E2028091E3029091E402A09180
:10183000E502B091E6020196A11DB11D8093E3027D
:101840009093E402A093E502B093E602BF91AF91BA
:101850009F918F913F912F910F900FBE0F901F90EE
:10186000189526E8230F0296A11DB11DD2CF1F9215
:101870000F920FB60F9211242F933F934F935F93C4
:101880006F937F938F939F93AF93BF93EF93FF9348
:1018900087EE92E00E942F02FF91EF91BF91AF91EE
:1018A0009F918F917F916F915F914F913F912F9178
:1018B0000F900FBE0F901F9018951F920F920FB6AA
:1018C0000F9211242F938F939F93EF93FF93E091A7
:1018D000F702F091F8028081E091FD02F091FE02A2
:1018E00082FD1BC09081809100038F5F8F732091D8
:1018F0000103821741F0E0910003F0E0E951FD4F50
:10190000958F80930003FF91EF919F918F912F917D
:101910000F900FBE0F901F9018958081F4CF1092FA
:10192000EA021092E90288EE93E0A0E0B0E0809332
:10193000EB029093EC02A093ED02B093EE028AE4E6
:1019400091E09093E8028093E70285EC90E0909319
:10195000F4028093F30284EC90E09093F60280937B
:10196000F50280EC90E09093F8028093F70281EC0E
:1019700090E09093FA028093F90282EC90E09093C9
:10198000FC028093FB0286EC90E09093FE02809331
:10199000FD021092000310920103109202031092B4
:1019A000030388E691E09093A1038093A00387EE60
:1019B00092E09093A3038093A20380E091EEA0E0D5
:1019C000B0E08093A4039093A503A093A603B093E3
:1019D000A703109252068CE591E0909361068093E4
:1019E00060061092620610926906109270061092BC
:1019F000740610927306E4EEF5E01192119286E0FF
:101A0000E631F807D1F7E6E1F6E01192119286E0AF
:101A1000E834F807D1F7E4EBF3E0119284E0EC3C12
:101A2000F807D9F7ECECF4E084EE95E011928E170C
:101A30009F07E1F7109268061092670610926F06F2
:101A400010926E062EE731E030939D0320939C03A5
:101A500080EB92E090939F0380939E0341ED52E0D0
:101A600050939303409392034CE953E050939503B2
:101A70004093940310929B0310929A0342E751E023
:101A8000509385034093840330938B0320938A0300
:101A900090938D0380938C0385E995E090938F0359
:101AA00080938E0381E090E0909391038093900364
:101AB0008AED92E090938903809388030895789447
:101AC00084B5826084BD84B5816084BD85B5826043
:101AD00085BD85B5816085BD80916E0081608093F4
:101AE0006E0010928100809181008260809381005D
:101AF000809181008160809381008091800081606D
:101B0000809380008091B10084608093B1008091C7
:101B1000B00081608093B00080917A0084608093EF
:101B20007A0080917A00826080937A0080917A00B6
:101B3000816080937A0080917A00806880937A0037
:101B40001092C10040E051EE60E070E087EE92E05C
:101B50000E9487008DE00E942F0183E00E942F01E8
:101B60004091A4035091A5036091A6037091A7032F
:101B70008091A2039091A3030E94870010924906CE
:101B80001092480610924B0610924A0610924F0689
:101B900010924E0610924D0610924C06E6E1F6E0C9
:101BA00090E080E021913191232B09F041C0FC01AC
:101BB000EE0FFF1FEA5EF94F24E833E03183208304
:101BC0008C599F4F9093870380938603E4EEF5E052
:101BD00090E080E021913191232B81F5FC01EE0F03
:101BE000FF1FEC51FA4F22E933E031832083835801
:101BF0009F4F909397038093960380EA93E090938E
:101C0000990380939803C0E0D0E080EA93E00E94BB
:101C1000A50861E070E080E090E00E9473012097E9
:101C2000A1F30E941B02882381F30E940000EDCFE4
:101C300001968931910509F0B5CFC8CF0196893158
:101C4000910541F6E0CFDB018F939F930E94690ECF
:101C5000BF91AF91A29F800D911DA39F900DB29F48
:101C6000900D1124089597FB072E16F4009407D0C9
:101C700077FD09D00E94740E07FC05D03EF49095C4
:101C800081959F4F0895709561957F4F0895A1E2CA
:101C90001A2EAA1BBB1BFD010DC0AA1FBB1FEE1FE6
:101CA000FF1FA217B307E407F50720F0A21BB30B31
:101CB000E40BF50B661F771F881F991F1A9469F7AD
:101CC00060957095809590959B01AC01BD01CF0109
:101CD00008950E948E0EA59F900DB49F900DA49F15
:101CE000800D911D11240895AA1BBB1B51E107C053
:101CF000AA1FBB1FA617B70710F0A61BB70B881F9C
:101D0000991F5A95A9F780959095BC01CD0108952A
:101D1000EE0FFF1F0590F491E02D0994A29FB001F2
:101D2000B39FC001A39F700D811D1124911DB29F0F
:101D3000700D811D1124911D0895B0E0A0E0E3EA2B
:101D4000FEE00C9493108C01009751F4CB010E949B
:101D50006C0F8C01C801CDB7DEB7E0E10C94AF1079
:101D6000FC01E60FF71F9C0122503109E217F3072F
:101D700008F49DC0D901CD91DC911197C617D70702
:101D800098F0C530D10530F3CE0104978617970738
:101D900008F3C61BD70B2297C193D1936D937C9305
:101DA000CF010E940810D6CF5B01AC1ABD0A4C01CE
:101DB0008C0E9D1EA0917706B0917806512C412C77
:101DC000F12CE12C109731F58091750690917606F3
:101DD0008815990509F05CC04616570608F058C0EA
:101DE0008091000190910101009741F48DB79EB759
:101DF0004091040150910501841B950BE817F907E8
:101E000008F055C0F0937606E0937506F9017183EA
:101E10006083A0CF8D919C91119712966C90129730
:101E200013967C901397A815B90559F56C0142E0FB
:101E3000C40ED11CCA14DB0420F1AC014A195B09A1
:101E4000DA011296159780F0628273825183408383
:101E5000D9016D937C93E114F10471F0D7011396CD
:101E6000FC93EE93129776CF22968C0F9D1FF9016B
:101E700091838083F301EFCFF0937806E0937706A8
:101E800069CF4816590608F42C017D01D3019ACF79
:101E9000CB010E946C0F7C01009749F0AE01B801A4
:101EA0000E945A0FC8010E940810870153CF10E00A
:101EB00000E050CFFB01DC0102C001900D924150C7
:101EC0005040D8F70895FB01DC018D9101908019F5
:101ED0000110D9F3990B08950F931F93CF93DF93BC
:101EE0008230910510F482E090E0E0917706F09165
:101EF000780630E020E0B0E0A0E0309799F42115BA
:101F0000310509F44AC0281B390B24303105D8F5B6
:101F10008A819B816115710589F1FB01938382831D
:101F2000FE0111C040815181028113814817590778
:101F3000E0F04817590799F4109761F012960C9346
:101F4000129713961C933296CF01DF91CF911F9178
:101F50000F9108950093770610937806F4CF21151A
:101F6000310551F04217530738F0A901DB019A01FE
:101F7000BD01DF01F801C1CFEF01F9CF90937806E1
:101F800080937706CDCFFE01E20FF31F81939193EB
:101F90002250310939832883D7CF2091750630919B
:101FA0007606232B41F420910201309103013093F6
:101FB00076062093750620910001309101012115CC
:101FC000310541F42DB73EB7409104015091050110
:101FD000241B350BE0917506F0917606E217F307A6
:101FE000A0F42E1B3F0B2817390778F0AC014E5F89
:101FF0005F4F2417350748F04E0F5F1F509376064A
:1020000040937506819391939FCFF0E0E0E09CCFE1
:10201000CF93DF930097E9F0FC013297138212828D
:10202000A0917706B0917806ED0130E020E010979E
:10203000A1F420813181820F931F20917506309188
:1020400076062817390709F061C0F0937606E09309
:102050007506DF91CF910895EA01CE17DF07E8F505
:102060004A815B819E0141155105B1F7E901FB836E
:10207000EA8349915991C40FD51FEC17FD0761F40C
:10208000808191810296840F951FE901998388834D
:10209000828193819B838A83F0E0E0E012968D91A8
:1020A0009C9113970097B9F52D913C911197CD0113
:1020B0000296820F931F209175063091760628179D
:1020C000390739F6309751F5109278061092770655
:1020D000B0937606A0937506BCCFD383C2834081AC
:1020E0005181840F951FC817D90761F44E5F5F4F68
:1020F00088819981480F591F518340838A819B8130
:10210000938382832115310509F0B0CFF0937806CF
:10211000E09377069ECFFD01DC01C0CF13821282CF
:10212000D7CF2F923F924F925F926F927F928F9272
:102130009F92AF92BF92CF92DF92EF92FF920F9356
:102140001F93CF93DF93CDB7DEB7CA1BDB0B0FB660
:10215000F894DEBF0FBECDBF09942A88398848881D
:102160005F846E847D848C849B84AA84B984C884B3
:10217000DF80EE80FD800C811B81AA81B981CE0FAA
:10218000D11D0FB6F894DEBF0FBECDBFED0108958F
:04219000F894FFCFF1
:10219400000079068000726F7373657269616C5F09
:1021A4006D7367732F5265717565737450617261D5
:1021B4006D0000000000200750044D044A04000094
:1021C400000071052B052805250500000000FA060E
:1021D4000A0407040404000000005102B101DE01F6
:1021E4009E020F02ED010102000000003F06A3075A
:1021F4000104FE0300000000CD02A508BE02000099
:102204000000EA03C902C602C302000000001B0664
:10221400AC03C602C30239393263653861313638DA
:1022240037636563386338626438383365633733DA
:10223400636134316431007374645F6D7367732F49
:10224400537472696E67004D6573736167652066C8
:10225400726F6D206465766963652064726F707057
:1022640065643A206D657373616765206C6172679C
:102274006572207468616E206275666665722E00F0
:102284003966306539386264613635393831393800
:102294003664646635336166613761343065343978
:1022A400003131616264373331633235393333326B
:1022B40036316364363138336264313264363239EC
:1022C4003500726F7373657269616C5F6D736773E8
:1022D4002F4C6F670030616435316638386663347B
:1022E400343839326638633130363834303737363B
:1022F400343630303500726F7373657269616C5FA8
:102304006D7367732F546F706963496E666F0063F2
:1023140064373136366337346335353263333131BC
:1023240066626363326665356137626332383900E9
:102334007374645F6D7367732F54696D65000D0A60
:10234400006F6E004F4E206F6B203A29006F666657
:10235400004F4646206F6B203A2800626C696E6B12
:0E236400006F646F6D65747279006C656400C3
:00000001FF
